:020000001628C0
:0E0006008312031322088A00210882000800DA
:1000140003208A110A128000840AA10A0319A20A81
:08002400F003031D0A28080087
:10002C008316031386010130831286000230FB0015
:10003C000430FC00BA30FD00FD0B2228FC0B2228FA
:10004C00FB0B22280000201C39280608F000F00DBC
:10005C007010700886000608003A031D38284030DE
:10006C008600201046280608F000F00CF0137008EB
:10007C0086000608003A031D46280230860020142C
:04008C001C284728BD
:02400E004A2F37
:00000001FF
